:020000041000EA
:1000000000B50C4B00219960042159610A4919601F
:100010000A490B480160002159600121996001BC27
:10002000002800D0004707480749086003C880F34C
:10003000088808470000001800031F00180200038A
:10004000F40000180001001008ED00E000000000BE
:1000500000000000000000000000000000000000A0
:100060000000000000000000000000000000000090
:100070000000000000000000000000000000000080
:100080000000000000000000000000000000000070
:100090000000000000000000000000000000000060
:1000A0000000000000000000000000000000000050
:1000B0000000000000000000000000000000000040
:1000C0000000000000000000000000000000000030
:1000D0000000000000000000000000000000000020
:1000E0000000000000000000000000000000000010
:1000F0000000000000000000000000002CEC210DBA
:1001000000200420F7010010CB010010CD010010E9
:10011000C9010010C9010010C9010010C901001077
:10012000C9010010C9010010C9010010CF01001061
:10013000C9010010C9010010D1010010D301001045
:10014000C1010010C1010010C1010010C101001067
:10015000C1010010C1010010C1010010C101001057
:10016000C1010010C1010010C1010010C101001047
:10017000C1010010C1010010C1010010C101001037
:10018000C1010010C1010010C1010010C101001027
:10019000C1010010C1010010C1010010C101001017
:1001A000C1010010C1010010C1010010C101001007
:1001B000C1010010C1010010C1010010C1010010F7
:1001C000EFF30580103800BE00BE00BE00BE00BECA
:1001D00000BE00BEF2EB8871D8E00210F8E0021019
:1001E0003802001090A31AE71E481F49086006C88D
:1001F00081F3088810471D480068002801D019487D
:10020000F3E70DA40ECC002902D000F012F8F9E7B4
:100210001749184A002000E001C19142FCD116495B
:100220008847164988471649884700BEFDE701C937
:1002300001C29A42FBD37047F8E00210C0000020D0
:10024000145800204C380310000004200000042043
:100250004C3803100010042000100420000000009F
:10026000704700000000000008ED00E0000000D032
:100270001458002090910020657C0110D5020010D8
:100280005D7C0110F8B5C04606480749091A8B1075
:10029000C90FC91810B5491003D0044B002B00D06A
:1002A000984710BD1458002014580020000000008A
:1002B000054B10B5002B03D00449054800E000BFF2
:1002C000FFF7E2FF10BDC0460000000034770020B9
:1002D000A894021010B500F005F800F007F800200F
:1002E00010BDC04610B500F0D9FA10BD10B500F031
:1002F0008BFC10BD10B500F06DFA10BD10B500F00C
:1003000069FA10BD7047C046044B10B598680028C4
:1003100002D003685B68984710BDC0462462002085
:1003200070B5114B114CE518203CA369002B14D07B
:1003300020001030032201009847AC42F4D10C4C4D
:100340002500803DA368002B0AD021002000032255
:10035000103C9847AC42F5D170BDAC42E4D1EEE719
:10036000103CAC42EED1F7E700FEFFFFC05A002080
:10037000B0580020054B10B51A001868083290429A
:1003800003D09968013115F061FF10BD7C62002037
:10039000044B10B51868002802D0242115F056FF30
:1003A00010BDC046E4620020016810B50B79FF2B38
:1003B0000CD08B68002B09D0CB686333BFF35B8F05
:1003C0001B78BFF35B8FDBB2002B00D110BD8868B8
:1003D0000A790368C9685C690023A04701200021ED
:1003E00040421AF039FCF1E710B5084904000068F2
:1003F00002F06EFB002800D110BD2468200002F03E
:100400004BFF0100200002F09FFDF5E794690020FA
:1004100010B501F05FFE01F099FE10BD012A07D072
:10042000022A09D0032A01D0002A03D000207047F5
:100430000160FBE70260F9E70B680360F6E7C0467E
:10044000012A07D0022A09D0032A01D0002A03D0AA
:10045000002070470160FBE70260F9E70B6803606A
:10046000F6E7C046012A03D0002A03D000207047D7
:100470000160FBE70260F9E7012A03D0002A03D0FC
:10048000002070470160FBE70260F9E700B583B028
:1004900001236A4601A90020938018F0E9F8044B73
:1004A0000122BFF35B8F1A70BFF35B8F03B000BDF7
:1004B0002863002070B5114B114CE518203CA3694E
:1004C000002B14D020001030032201009847AC42CA
:1004D000F4D10C4C2500803DA368002B0AD02100EC
:1004E00020000322103C9847AC42F5D170BDAC42CD
:1004F000E4D1EEE7103CAC42EED1F7E700FEFFFF9F
:10050000685D0020585B0020F0B5CE46474680B5B8
:100510003B4FC1B038001DF009F83A4D002805D115
:10052000280041B0C0BCB946B046F0BD2B00142035
:10053000083313262B6015F081FE13223249040084
:10054000AE60286015F074FE6E6000262F4BE674D6
:10055000180099461CF0EAFF2D4B984600280AD156
:100560004346AB6100232B482B7726F02BFB38004A
:100570001CF0F8FFD4E7180013F09AFC264C27482B
:10058000210027F0F5FE002803D148461CF0EAFFC1
:10059000E6E7404628F04CFF8021FE204901400359
:1005A00028F0D6FE80211E48490128F0D1FE802186
:1005B000FF204901400328F0CBFE80211948490162
:1005C00028F0C6FE6B4621000F226846DE73FE242B
:1005D00027F0F2FD8026F022FF2104A815F022FE6C
:1005E0006403B60380222000013469465200FF34C0
:1005F00028F07EFEB442F5D1404628F041FEC4E723
:100600000C6100207C620020A8940210446100204C
:100610001C6300207503001010AA021000C01F10F8
:1006200000D01F0000F01F0070B50A4D28001CF01C
:100630007DFF094C002801D1200070BD0121200060
:1006400000F0B6FC054826F0BDFA28001CF08AFF31
:10065000F2E7C0464C610020C05A0020B5040010EB
:1006600070B5354C8AB020001CF060FF334D002877
:1006700052D1334B6B6102E0642013F027FF01F08D
:100680001FFD0028F8D002AA11002E4B51CB51C1FA
:100690001B6801200B6064211AF012F8022306ACDB
:1006A0002100238001201AF00FF8FFF7BDFF00F0B2
:1006B00015FE002306000793234B06950993234B51
:1006C0000893FFF7B1FF0123C8223100009400F026
:1006D0000BFE089B002B03D003222100200098472B
:1006E0001B4D1C4C1C4E07E0200001F0E9FA0120D4
:1006F000002140421AF0B0FA28001CF017FF002831
:10070000F2D00121200000F053FC300026F05AFA0C
:1007100028001CF027FFE7E700211022281D297080
:1007200015F080FDFF230D482B712B7426F04AFA3B
:1007300020001CF017FF9CE70861002024620020C5
:100740009469002020AA0210A90300101D040010C3
:100750004C610020C05A0020B504001009030010AD
:10076000F0B587B00500FFF7CFFE00230393144BCD
:10077000144F0593144B0290380004931CF0D6FEDE
:1007800002AC124E002810D196220123290030001D
:100790000094920000F0A8FDA368002B03D0032270
:1007A00021002000984707B0F0BD0021300000F084
:1007B000FFFB074826F006FA38001CF0D3FEE3E7FB
:1007C000E90300104861002041040010185800207F
:1007D0002103001070B584B0040001F08BFC274B9E
:1007E000002C07D1BFF35B8F1A78BFF35B8FD2B2B7
:1007F000002A26D1BFF35B8F1B78BFF35B8FDBB280
:10080000002B01D004B070BD6C4608220021684660
:1008100015F008FD1A4B1B4E03931B4B3000A360D1
:100820001CF084FE194D00281CD12100280001F085
:10083000B7F9A368002BE5D00322210020009847D8
:10084000E0E76C4608220021684615F0EBFC104BEF
:100850000C4E03930F4B3000A3601CF067FE0B4D52
:100860000028E2D00021280000F0A2FB0A4826F070
:10087000A9F930001CF076FED7E7C04628630020B7
:100880008D040010486100207904001018580020E1
:10089000110400106504001021030010F0B5D646C5
:1008A00046464F46C0B5C0B001F068FCC54B1800C5
:1008B00098461CF03BFEC44E002800D0DDE06C469C
:1008C000300002F04DFD20000022310002F09EFBBE
:1008D0009A21615C97238C469721694488460F785A
:1008E0004978BA4D090239434746BF78E25C3F0474
:1008F0000F434146C97801330906E05C39430133AF
:10090000E35C2960614609021F040B4361463B43D7
:10091000090617020B433A4301040A430006024347
:1009200013436B6000239C222B729B33E15CA35C1E
:100930001B020B436B81A35804321B021B0CAB81BF
:100940009F23E15CA35C1B020B43EB81A3580432A1
:100950001B021B0C2B82A323E15CA35C1B020B4339
:100960006B82A35804321B021B0CAB82A723E15CF1
:10097000A35C1B020B43EB82A35804321B021B0C2B
:100980002B83AB23E15CA35C1B020B436B83A3585B
:1009900004321B021B0CAB83AF23E15CA35C1B0284
:1009A0000B43EB83A3580432A25A1B026A84B6227B
:1009B000A25A1B0CAA84B8222B84BC23A25AE35A45
:1009C000EA84BA226B85B323A25A2A85E35C2C0001
:1009D0005A1E93416722AB546B466834591C200061
:1009E00002F0E0FF012358408023C0B25B00E854CE
:1009F000002800D08EE0764F0EA9380002F0D2FF1A
:100A000001233C0058400223C0B2A03CFF33E05415
:100A100000286DD16F236F4C6B441900200003F048
:100A20004FF90123220058408123C0B2D83A5B001D
:100A3000D054002855D18323674C6B441900200003
:100A400003F03EF901235840C0B2E075002841D1BF
:100A5000624C20001CF06AFD002834D1300002F006
:100A60001BFC5F4B01002A00180003F08DFC40B016
:100A7000E0BCBA46B146A846F0BD330014200833A6
:100A80001325336015F0DAFB132256490400B560D4
:100A9000306015F0CDFB75600025534BE5741800F0
:100AA0009A461CF043FD514B9946002845D16C46AF
:100AB0004B46B36100234E48337726F083F8404617
:100AC0001CF050FDFCE64B4826F07CF820001CF0A2
:100AD00049FDC3E783236B441900200003F038F974
:100AE000B6E7933B6B441900200003F031F9A2E70D
:100AF0000EA9380003F030F8C021642362585A432D
:100B00006250043162585A436250B822A1584B4394
:100B1000A3507FE76B462000591C03F01DF8882185
:100B200064236A585A436A5004316A585A436A50D7
:100B30008022A9584B43AB505DE7180013F0B8F979
:100B40002D4F2E48390027F013FC6C46002803D1A6
:100B500050461CF007FDABE7484628F069FC8021B1
:100B6000FE204901400328F0F3FB8021244849017D
:100B700028F0EEFB8021FF204901400328F0E8FB2C
:100B800080212048490128F0E3FB39000F22E5735A
:100B9000684627F011FBFE25F022FF21802704A8DC
:100BA00015F040FB6D03BF038022280001352100B2
:100BB0005200FF3528F09CFBBD42F5D1484628F095
:100BC0005FFBC5E70C6100207C6200209469002077
:100BD000346A00206C6A0020806A002014610020C2
:100BE000E4620020A8940210446100201C630020ED
:100BF000750300109103001010AA021000C01F100E
:100C000000D01F0000F01F00F0B5C64600B517F079
:100C100075FA3B4817F0E8FAFFF776FC02F03CFB68
:100C200064281ED0374B384D9846384E05E03000CA
:100C300001F046F8642013F049FC17F00FFD00287E
:100C400016D128001CF072FC0028F0D000213000E2
:100C500000F0AEF9404625F0B5FF28001CF082FCFC
:100C6000E5E70120FFF7B6FD264B274D9846274EB6
:100C700028001CF05BFC00282FD1300000F02EFB78
:100C8000FFF76EFD224C20001CF050FC00282FD1F5
:100C9000204B214F1C6810E0300001F011F8236850
:100CA0003A00002120005B68984701200021404263
:100CB00017F058FD012013F009FC28001CF036FC49
:100CC0000028E9D00021300000F072F9404625F0FC
:100CD00079FF28001CF046FCDEE70021300000F020
:100CE00067F9404625F06EFF28001CF03BFCC4E786
:100CF0000A4825F067FF20001CF034FCC8E7C04616
:100D000061060010210300104861002018580020DF
:100D100014610020E4620020946900209103001017
:100D2000F0B5DE4657464E464546E0B56B4C6C4B3B
:100D300089B023606B4B002563606B4B0022E3603E
:100D40006A4B802623616A4B76026361694B914648
:100D5000A361694B1822E361684B00212362684B51
:100D6000A6606362674B2700A362230044331D80A3
:100D700046239B46A344584615F054FA5D23E55498
:100D8000230002225D335A705F239A46A244002159
:100D90005046013215F046FA62239C224946E5523C
:100DA0001E33E5500433E6500433E5500433E55078
:100DB0000433E6500433E6500433E650973BA35225
:100DC0000232A1540232A5500432A6500432A5507A
:100DD0000432A5500432A5500432A5500432A55067
:100DE0000432A6500432A5500432A5500432A65055
:100DF0000432A6500432A6500432A352D533E15433
:100E00000233E6666566A56625676567A567E567DB
:100E1000E5500433E6500433E5500433E650043320
:100E2000E6500433E5500433E6500433E550043310
:100E3000E6500433E6500433E550D43B9846260090
:100E4000A0444046343713F033F83C36380013F0F2
:100E50002FF8300013F02CF8404628F0E9FA17225A
:100E6000002101A815F0DEF96B4649460222D97629
:100E70001A7701A91732584615F0DAF9404628F0DA
:100E8000FFF92300623301229046BFF35B8F1A7093
:100E9000BFF35B8F380028F0CBFA6B469D8044236C
:100EA000E55263344346BFF35B8F2370BFF35B8F20
:100EB000380028F0E5F9300028F0BAFA03220021C2
:100EC000504615F0AFF9300028F0DAF909B0F0BC5F
:100ED000BB46B246A946A046F0BDC0469469002074
:100EE000010204080509060A0200040008001000B7
:100EF0002000400080000001000200040008000102
:100F0000020304050607080970B5114B114CE518DA
:100F1000203CA369002B14D02000103003220100D4
:100F20009847AC42F4D10C4C2500803DA368002BBF
:100F30000AD0210020000322103C9847AC42F5D192
:100F400070BDAC42E4D1EEE7103CAC42EED1F7E725
:100F500000FEFFFFC05A0020B058002070B5114BB2
:100F6000114CE518203CA369002B14D02000103050
:100F7000032201009847AC42F4D10C4C2500803D7F
:100F8000A368002B0AD0210020000322103C9847C0
:100F9000AC42F5D170BDAC42E4D1EEE7103CAC42BE
:100FA000EED1F7E700FEFFFF685D0020585B0020F0
:100FB000F0B50022C646002500230127040000B535
:100FC000026143614760057201200E0012F088FC47
:100FD000A061012012F084FCBC4AE06194466044A8
:100FE000800060622000A3690C2263449B0023629E
:100FF0000021283015F016F920000C22002165632D
:10100000383015F00FF920000C22002165644830BB
:1010100015F008F920000C2200216565583015F004
:1010200001F920000C2200216566683015F0FAF8FD
:1010300020000C2200216567783015F0F3F8842336
:10104000E55004339846A0440C220021404615F098
:10105000E9F84346DD6098239846A0440C2200211D
:10106000404615F0DFF84346200020220021DD60D5
:10107000A83015F0D7F8B8239846A0440C220021D8
:10108000404615F0CFF84346200020220021DD60C5
:10109000C83015F0C7F8D8239846A0440C22002188
:1010A000404615F0BFF84346200020220021DD60B5
:1010B000E83015F0B7F8F8239846A0440C22002138
:1010C000404615F0AFF820004346093020220021A9
:1010D000DD60FF3015F0A6F88C235B009846A04435
:1010E0000C220021404615F09DF82000434629308F
:1010F00020220021DD60FF3015F094F89C235B0076
:101100009846A0440C220021404615F08BF82000A0
:101110004346493020220021DD60FF3015F082F87F
:10112000AC235B009846A0440C220021404615F0F9
:1011300079F820004346693020220021DD60FF302D
:1011400015F070F8BC235B009846A0440C220021E7
:10115000404615F067F820004346893020220021E0
:10116000DD60FF3015F05EF8CC235B009846A044AC
:101170000C220021404615F055F820004346A930C6
:1011800020220021DD60FF3015F04CF8DC235B00ED
:101190009846A0440C220021404615F043F8200058
:1011A0004346C93020220021DD60FF3015F03AF8B7
:1011B000EC235B009846A0440C220021404615F029
:1011C00031F820004346E93020220021DD60FF3065
:1011D00015F028F8FC235B009846A0440C2200215F
:1011E000404615F01FF84346DD6082239B00202215
:1011F0000021E01815F016F886239B009846A044BD
:101200000C220021404615F00DF84346DD608A238C
:101210009B0020220021E01815F004F88E239B008B
:101220009846A0440C220021404614F0FBFF4346A0
:10123000DD6092239B0020220021E01814F0F2FFD1
:1012400096239B009846A0440C220021404614F0AF
:10125000E9FF4346DD609A239B0020220021E0182D
:1012600014F0E0FF9E239B009846A0440C2200212E
:10127000404614F0D7FF4346DD60A2239B002022A6
:101280000021E01814F0CEFFA6239B009846A0444E
:101290000C220021404614F0C5FF43463000DD60BB
:1012A000431E984187400A4B20601F60002E0AD1E0
:1012B000084912F065FB2068012112F043FB200071
:1012C00080BCB846F0BD0449F3E7C0464000003496
:1012D00038600540BD1F0010811F001003004068EA
:1012E000421C5A607047C046F0B557464546DE4638
:1012F0004E46E0B590468BB004000D001F00426AD8
:10130000EFF3108B72B61368002BFCD0BFF35F8F26
:10131000AA239B0026009946A836A144B14500D1D6
:1013200073E1A823E3589D4200D1C8E0C823E358E5
:101330009D4200D1C3E0E823E3589D4200D1BEE0C6
:1013400084235B00E3589D4200D1B8E094235B0006
:10135000E3589D4200D1B2E0A4235B00E3589D42D4
:1013600000D1ACE0B4235B00E3589D4200D1A6E07D
:10137000C4235B00E3589D4200D1A0E0D4235B006E
:10138000E3589D4200D19AE0E4235B00E3589D427C
:1013900000D194E0F4235B00E3589D4200D18EE03D
:1013A00082239B00E3589D4200D188E08A239B0062
:1013B000E3589D4200D182E092239B00E3589D4276
:1013C0007DD09A239B00E3589D4278D0A2239B00B6
:1013D000E358AB4273D0012322689340CA4A13609A
:1013E000CA4B9B6A02932300B8339B68002B00D141
:1013F00013E12300D8339B68002B00D114E12300B4
:10140000F8339B68002B00D115E123001933FF331B
:101410009B68002B00D117E123003933FF339B6811
:10142000002B00D11AE123005933FF339B68002BB6
:1014300000D11DE123007933FF339B68002B00D1DD
:1014400020E123009933FF339B68002B00D123E177
:101450002300B933FF339B68002B00D126E1230022
:10146000D933FF339B68002B00D129E12300F933E6
:10147000FF339B68002B00D128E186239B00E318F3
:101480009B68002B00D127E18E239B00E3189B680B
:10149000002B00D126E196239B00E3189B68002BCC
:1014A00000D125E19E239B00E3189B68002B00D10F
:1014B00024E1A6239B00E3189B68002B0ED0636AEF
:1014C000BFF35F8F00221A608BF3108800200BB0EF
:1014D000F0BCBB46B246A946A046F0BDA2239B0085
:1014E0009A46C13BA244FF3B9C46A44463460393F7
:1014F000FA22002340469200002114F067FD029B6F
:10150000009300230193009A019B80185941534690
:101510009860D9607B1E9F4143467F423B4098467E
:101520005346424600215A6006A80C2214F07AFE67
:1015300000230993149B9B68002B56D00222149918
:1015400006A898475146149A149B92688969DB68EB
:1015500004AF8846380006A902920822009314F0CE
:1015600067FE534606AA103303CB03C2083B06CFDF
:1015700006C3414608915146CB69029A0993009BE4
:101580008A61CB614346002B03D003223900380027
:10159000C047534648461D60039B9A69002A0BD0FA
:1015A000B269002A1FD0F168DA6891421BD803D1D2
:1015B000B1689A68914216D820339842EDD1B04272
:1015C00008D0B369002B05D02368B1684F4A0433B3
:1015D0009B009950636ABFF35F8F00221A608BF300
:1015E0001088012073E71E00E6E704AF082206A971
:1015F000380014F01DFE5346103306CF06C3514683
:10160000009A019B8B61CB61C3E701232268934061
:101610003D4A13603D4B9B6A51E7C8239C46A44456
:101620006346B246039363E7C8339C46A4446346CB
:10163000E24603935CE7E8339A46203B9C46A44489
:101640006346A244039353E70933FF339A46403B72
:101650009C46A4446346A244039349E72933FF33DD
:101660009A46603B9C46A4446346A24403933FE7EA
:101670004933FF339A46803B9C46A4446346A244C8
:10168000039335E76933FF339A46A03B9C46A44455
:101690006346A24403932BE78933FF339A46C03B4A
:1016A0009C46A4446346A244039321E7A933FF3335
:1016B0009A46E03B9C46A4446346A244039317E742
:1016C000C933FF339A46013BA2440CE7E933FF33A9
:1016D0009A46213BA24406E782239B009A46413B5F
:1016E000A24400E78A239B009A46613BA244FAE6A3
:1016F00092239B009A46813BA244F4E69A239B00E6
:101700009A46A13BA244EEE6386005400040054001
:10171000F8B54546DE4657464E460400E0B5426AF7
:101720000D00EFF3108872B61368002BFCD0BFF3E6
:101730005F8FA8239A46AA239B00A244E718564627
:1017400057455FD0A8230022E35891469D4200D11F
:101750000AE2C823E3589D4200D1EDE1E823E358B3
:101760009D4200D1D0E184235B00E3589D4200D12B
:10177000B0E194235B00E3589D4200D190E1A423A3
:101780005B00E3589D4200D170E1B4235B00E35855
:101790009D4200D150E1C4235B00E3589D4200D13B
:1017A00030E1D4235B00E3589D4200D110E1E423F3
:1017B0005B00E3589D4200D1F0E0F4235B00E35866
:1017C0009D4200D1D0E082239B00E3589D4200D18E
:1017D000B0E08A239B00E3589D4200D190E0922321
:1017E0009B00E3589D4200D170E09A239B00E35890
:1017F0009D4214D0A2239B00E358AB422BD04B4612
:10180000002B3AD1636ABFF35F8F00221A6088F31E
:101810001088F0BCBB46B246A946A046F8BD9E2340
:101820009B009946A1444B469B68002B07D003229E
:1018300049464846984700234A469360D3609A2316
:10184000002000219B00E31818605960A2239B0030
:10185000E3589D4211D1A2239B00E518AB69002BF0
:1018600007D0280010300322010098470023AB6105
:10187000EB61002200232A606B6001232268934001
:10188000C54A13602300C8339A69002A0CD0B26994
:10189000002A08D0F168DA68914204D804D1B1680E
:1018A0009A68914200D91E0020339F42ECD1B74282
:1018B000A8D0B369002BA5D0F368B268002BA1DBD8
:1018C0002368B64904339B005A509BE796239B003C
:1018D0009946A1444B469B68002B07D003224946FA
:1018E0004846984700234A469360D36092230020DD
:1018F00000219B00E318186059600123994674E7A2
:101900008E239B009946A1444B469B68002B07D031
:10191000032249464846984700234A469360D360CD
:101920008A23002000219B00E318186059600123DE
:10193000994654E786239B009946A1444B469B68F1
:10194000002B07D0032249464846984700234A46C1
:101950009360D3608223002000219B00E31818606D
:1019600059600123994634E7FC235B009946A14462
:101970004B469B68002B07D00322494648469847B0
:1019800000234A469360D360230000200021E933FE
:10199000FF33186059600123994614E7EC235B007C
:1019A0009946A1444B469B68002B07D00322494629
:1019B0004846984700234A469360D360230000209E
:1019C0000021C933FF331860596001239946F4E6BA
:1019D000DC235B009946A1444B469B68002B07D053
:1019E000032249464846984700234A469360D360FD
:1019F000230000200021A933FF3318605960012320
:101A00009946D4E6CC235B009946A1444B469B689B
:101A1000002B07D0032249464846984700234A46F0
:101A20009360D3602300002000218933FF331860C6
:101A3000596001239946B4E6BC235B009946A14452
:101A40004B469B68002B07D00322494648469847DF
:101A500000234A469360D3602300002000216933AD
:101A6000FF33186059600123994694E6AC235B006C
:101A70009946A1444B469B68002B07D00322494658
:101A80004846984700234A469360D36023000020CD
:101A900000214933FF33186059600123994674E6E9
:101AA0009C235B009946A1444B469B68002B07D0C2
:101AB000032249464846984700234A469360D3602C
:101AC0002300002000212933FF33186059600123CF
:101AD000994654E68C235B009946A1444B469B688B
:101AE000002B07D0032249464846984700234A4620
:101AF0009360D3602300002000210933FF33186076
:101B000059600123994634E6F8239946A1444B468F
:101B10009B68002B07D0032249464846984700237C
:101B20004A469360D360230000200021E833186008
:101B300059600123994616E6D8239946A1444B469D
:101B40009B68002B07D0032249464846984700234C
:101B50004A469360D360230000200021C8331860F8
:101B6000596001239946F9E5B8239B46A3445B4697
:101B70009B68002B07D003225946584698475B467E
:101B80004A469A60DA600023002251460A604B60A0
:101B900001239946DDE5C046386005400040054018
:101BA000F0B54646D6464F46C0B5040086B00E0096
:101BB000026AEFF3108772B61368002BFCD0BFF3F4
:101BC0005F8F250023002835A8339D4222D0236B48
:101BD000002B2ED0236C1035002B2AD02500236D2E
:101BE0004835002B25D02500236E5835002B20D0FA
:101BF0002500236F6835002B1BD08023E358250078
:101C0000002B15D08835AB68002B12D0AB6910358E
:101C1000002B0ED0236ABFF35F8F00221A6087F378
:101C20001088002006B0E0BCBA46B146A846F0BD18
:101C300078350C22002102A814F0F4FA0023059351
:101C4000B3689846002B2ED03100022202A8984794
:101C5000F36802A99946B36808229A46AB686846B9
:101C6000984614F0E5FA2A0002AB03CA03C36E4695
:101C70002B0006CE06C3434604935346AB60EB6885
:101C800005934B46EB604346002B03D00322310003
:101C90003000C047236ABFF35F8F00221A6087F3CA
:101CA00010880120BEE7082202A9684614F0C0FA95
:101CB0006E462B0006CE06C34346AB60EB60E9E7F9
:101CC000F0B54646D6464F46C0B5804684B0026A57
:101CD000EFF3108672B61368002BFCD0BFF35F8F52
:101CE000A8234446434428349A469C423DD06D463E
:101CF000A3689946002B38D000270C220021280029
:101D000014F090FA022221002800EF60C847E3682F
:101D1000EB60A368AB60002B05D0032221002000FC
:101D20009847A760E76043461B6ABFF35F8F0022B6
:101D30001A6086F31088AB68002B28D0EB68280067
:101D4000984743461A6AEFF3108672B61368002B61
:101D5000FCD0BFF35F8FAB68002B14D003222900A7
:101D6000280010349847A245C2D143461B6ABFF3EE
:101D70005F8F00221A6086F3108804B0E0BCBA4678
:101D8000B146A846F0BD1034A245B1D1EDE71BF035
:101D900051FDC0460123F0B54546DE4657464E4646
:101DA0000268E0B59340724C724A8BB013602368AE
:101DB0008046002B00D1D0E0EFF3108172B61A6894
:101DC000002AFCD0BFF35F8F6B4BDA689B680392ED
:101DD0009B462368BFF35F8F00221A6081F310884F
:101DE0004346596AEFF3108372B69A460A68002A8E
:101DF000FCD0BFF35F8F4246127A002A00D0A3E0E6
:101E0000AA23464645469B00A8364344C835B342FC
:101E100000D1AAE03400059606AF1E00049502E04A
:101E20002034A64251D0A569002DF9D0E3685B4566
:101E3000F6D803D1A368039A9342F1D80C2200216B
:101E4000380014F0EFF90023FB6010339946A144E9
:101E5000022249463800A847E3696568FB60A36928
:101E6000BB60002D00D164E06B015B1B9B005B1924
:101E7000DB0000930023019300980199A268E368B6
:101E800012184B41A260E36043465B6ABFF35F8F69
:101E900000221A608AF3108839004046FFF780FE5E
:101EA00043465A6AEFF3108372B69A461368002BC2
:101EB000FCD0BFF35F8FBB68002BB1D00322390089
:101EC000380020349847A642ADD13100049D059ECC
:101ED000AB69002B0CD0B369002B08D0F268EB681B
:101EE0009A4204D804D1B268AB689A4200D92E0055
:101EF0002035A942ECD1B1420CD0B369002B09D0F6
:101F0000F368B268002B05DB43461B681A490433AB
:101F10009B005A5043465B6ABFF35F8F00221A60F2
:101F20008AF310880BB0F0BCBB46B246A946A04667
:101F3000F0BD002B05D00322494648469847A561CD
:101F4000E561002323609FE74246526ABFF35F8F3B
:101F50000021116083F31088E4E7012011F0C0FC38
:101F6000064BC3189B00236026E71900B0E7C04664
:101F700030630020347005400040054040000034CC
:101F800070B50B4D28001BF0D1FA0A4C002803D184
:101F90002000FFF7FFFE70BD01212000FFF708F8C9
:101FA000054824F00FFE28001BF0DCFAF0E7C046DD
:101FB0004C610020C05A00205D0F001070B50B4D21
:101FC00028001BF0B3FA0A4C002803D12000FFF7C9
:101FD000E1FE70BD00212000FEF7EAFF054824F075
:101FE000F1FD28001BF0BEFAF0E7C0464861002072
:101FF00018580020090F001070B52A4D28001BF05A
:1020000095FA294C002839D1626AEFF3108572B62F
:102010001368002BFCD0BFF35F8F237A002B07D00F
:10202000636ABFF35F8F00221A6085F3108870BD6A
:10203000012322681D4E934030681D4A136000281A
:1020400027D0EFF3108C72B60368002BFCD0BFF3DF
:102050005F8F184B3068D9689A68BFF35F8F002391
:1020600003608CF310886261012221612272626A2E
:10207000BFF35F8F136085F31088D8E7002120003D
:10208000FEF796FF0C4824F09DFD28001BF06AFA2D
:10209000BAE7013011F024FC084B9C4660448000F4
:1020A0003060CEE7486100201858002030630020DF
:1020B0003470054000400540090F00104000003416
:1020C000034B002010B5002B01D000F0EBF810BD41
:1020D000A522001010B5FFF78FFF16F00FF8FA20B9
:1020E000400012F0F3F916F0AFFAFA20400012F0B7
:1020F000EDF910BD70B5114D0400280027F098F9D6
:102100000F4B002B02D0200000F08CF80D4B002B61
:1021100002D0200000E000BF0B4B002B06D0002CAB
:1021200008D1FF200021002200E000BF280027F096
:10213000A7F870BD0020FF21F5E7C0460C62002023
:10214000252200100000000000000000014B024AA0
:102150001A60FEE70CED00E00400FA0510B512F07D
:1021600061FB002905D0FA220023920013F048F900
:1021700010BDFA21890013F005F9F9E710B584B014
:102180001B4803AB02AA01A912F0B8FD002803D135
:102190001848174911F004FB039A0299019812F0AC
:1021A000D1FC15F0C7FE144C2368002B01D004B0FD
:1021B00010BD200011F07CFE200027F039F90F4BF4
:1021C000002B01D000E000BF0D4B002B01D000F030
:1021D0001DF80C4B002B01D000E000BF0A4B002B78
:1021E00001D000F06DF8200027F04AF8DFE7C04684
:1021F00080A90300BC9402100C62002000000000C3
:102200000D22001000000000C122001010B519209E
:1022100011F0A0FAD02380221B0692045A629A6120
:1022200010BDC046D02380221B069204002801D096
:102230005A6170479A61FCE710B5002204000C2136
:10224000002011F0F3F900220C21012011F0EEF929
:10225000012C00D910BDD02301221B0659685B68F0
:102260000A409B07DB0F134307D00D4B0122BFF33E
:102270005B8F1A70BFF35B8FECE7094B0022BFF353
:102280005B8F1A70BFF35B8F01220C21002011F0CD
:10229000CDF901220C21012011F0C8F9DAE7C0467E
:1022A000B8610020054BBFF35B8F1878BFF35B8FDD
:1022B000C0B2431E9841C0B27047C046B86100200A
:1022C00070B5D024012502262406002011F042FA20
:1022D000012200210020A56211F03CF9012011F03B
:1022E00039FA012200210120A66211F033F9636856
:1022F0001D4202D163681E4207D00B4B0122BFF37F
:102300005B8F1A70BFF35B8F70BD084C01222300F6
:102310000C21002011F0B6F9230001220C2101202C
:1023200011F0B0F9F0E7C046B86100203922001082
:10233000F0B5DE4657464E4645469946FE23E0B583
:10234000294C06025B03A544F418802390468022A2
:10235000240B24035B0540AD0F005201E118280057
:1023600013F066FF80212000490126F0F1FF0023D1
:102370009A466B4652461D49DA7368460F3225F07D
:102380001BFFF022FF2104A813F04CFF8022AE199E
:1023900069463000520013F04BFF7B6830009B46CB
:1023A0001A00396825F008FF5B4652463000F254A7
:1023B00041464A46103013F03BFF80235B01E6188C
:1023C0002D1B80222000291901345200FF3426F0F1
:1023D0008FFFA642F5D1064B9D44F0BCBB46B246EA
:1023E000A946A046F0BDC046FCEEFFFF10AA0210B1
:1023F00004110000F0B557464E464546DE46E0B5AE
:10240000C7B009AB0793C74B924609AA804603CBD6
:1024100003C2082357460893002307AE3374092FDD
:1024200000D86FE10FAD0DAC0D95632F00D8A8E07B
:1024300013ABC9221800BC499B4613F0F9FE3800C3
:10244000642112F09FFF38004B0064219A4612F07D
:1024500099FF5B4653445B785246A3725B46070084
:102460009B5C032263723B003033DBB2002123729A
:102470000D9B626099546268736893461F005B44C9
:102480009946079B9A4609AB9A4500D1FEE00D9A02
:10249000B3680392994500D881E0AA4200D1BAE01E
:1024A000A268914500D88CE0A04AD21B934500D980
:1024B000B9E009AA924500D10EE14A46002A00DAA5
:1024C00047E15B000493994500D2B5E04B46049385
:1024D000581C00D504E113F0B1FE079B824605931A
:1024E000002F00D1EAE0012F00D102E13A00059966
:1024F00013F09EFE039B002B03D05B46002B00D005
:10250000E0E0059809AB984203D0B168013113F0BF
:102510009DFE53460793049BB3604B46524673603F
:1025200049460023404653544346726808301860B9
:10253000079B914609AA934200D1B9E04246136035
:10254000B368936043464A465A6009AB0793002339
:102550000D9873603372A84203D0A168013113F063
:1025600075FE079809AB984203D0B168013113F0AA
:102570006DFE404647B0F0BCBB46B246A946A046F9
:10258000F0BD13AFC9223800674913F051FE53461E
:102590005B00FA185278FB5C6272022266E7634BBA
:1025A000DB1B9B453FD85B46002BB6D03800504420
:1025B000012B3BD05A46039913F03AFE079B9A46EB
:1025C000ABE75A46594B9B1A9F4200D9BEE0039B8A
:1025D000534503D85B449A4500D8ABE05B46002BDB
:1025E0003ED14B46002B47D14B4649466360002302
:1025F000039A4046535443460830626818600D9B66
:102600009146AB4279D042461360A368936043463B
:102610004A465A60A5E74A460F2A12D9434AD21BB6
:10262000934500D849E742481BF0D0F8039B1B783C
:102630000370079B9A4670E7002B51DB049B581CE4
:1026400049E75A46394B9B1A9F4200D97EE05B46C8
:10265000AA4560D3EB189A456CD95B46002B0BD08A
:10266000002FC1D0BC465B4603986044012B55D077
:102670005A46039925F0A8FC012F33D03A00514661
:10268000039813F0D5FD0D9B0393ADE74B460D9AD0
:1026900003920F2B83D90F23AA4200D000E74B46A9
:1026A000002B56DB1D2B00D910E71E230493C5E732
:1026B0004B4609A95A1C13F0BBFD43E7039B002BB3
:1026C00000D11EE738005B465044012B1FD05A460C
:1026D000039913F0ADFD14E7994500D863E7ECE6E4
:1026E0001BF03CF85346039A1B7813700D9B039321
:1026F0007AE7059B1B780370FCE62900013213F092
:1027000097FD84E70FAD01220D950DACABE6039B61
:102710001B780370F5E6002BA2D1ADE7039B1B7875
:102720000370A9E7FC94021054950210FFFFFF7F8D
:10273000249502105B460022019320005346039922
:1027400000971BF0E5F80D9B03934DE702481BF043
:102750003DF802481BF03AF8089502103C9502102B
:10276000F0B557464E464546DE46E0B5C7B009AB24
:102770000793C84B924609AA804603CB03C21B8825
:1027800007AE13800A23574673600023B374092FE2
:1027900000D86FE10FAD0DAC0D95632F00D8A8E008
:1027A00013ABC9221800BC499B4613F041FD380009
:1027B000642112F0E7FD38004B0064219A4612F0C4
:1027C000E1FD5B4653445B785246A3725B460700CB
:1027D0009B5C032263723B003033DBB20021237227
:1027E0000D9B626099546268736893461F005B4456
:1027F0009946079B9A4609AB9A4500D1FEE00D9A8F
:10280000B3680392994500D881E0AA4200D1BAE0AA
:10281000A268914500D88CE0A04AD21B934500D90C
:10282000B9E009AA924500D10EE14A46002A00DA31
:1028300047E15B000493994500D2B5E04B46049311
:10284000581C00D504E113F0F9FC079B8246059360
:10285000002F00D1EAE0012F00D102E13A000599F2
:1028600013F0E6FC039B002B03D05B46002B00D04B
:10287000E0E0059809AB984203D0B168013113F04C
:10288000E5FC53460793049BB3604B465246736086
:102890004946002340465354434672680830186046
:1028A000079B914609AA934200D1B9E042461360C2
:1028B000B368936043464A465A6009AB07930023C6
:1028C0000D9873603372A84203D0A168013113F0F0
:1028D000BDFC079809AB984203D0B168013113F0F1
:1028E000B5FC404647B0F0BCBB46B246A946A04640
:1028F000F0BD13AFC9223800674913F099FC534665
:102900005B00FA185278FB5C6272022266E7634B46
:10291000DB1B9B453FD85B46002BB6D038005044AC
:10292000012B3BD05A46039913F082FC079B9A4631
:10293000ABE75A46594B9B1A9F4200D9BEE0039B16
:10294000534503D85B449A4500D8ABE05B46002B67
:102950003ED14B46002B47D14B464946636000238E
:10296000039A4046535443460830626818600D9BF2
:102970009146AB4279D042461360A36893604346C8
:102980004A465A60A5E74A460F2A12D9434AD21B43
:10299000934500D849E742481AF018FF039B1B787B
:1029A0000370079B9A4670E7002B51DB049B581C71
:1029B00049E75A46394B9B1A9F4200D97EE05B4655
:1029C000AA4560D3EB189A456CD95B46002B0BD017
:1029D000002FC1D0BC465B4603986044012B55D004
:1029E0005A46039925F0F0FA012F33D03A005146A8
:1029F000039813F01DFC0D9B0393ADE74B460D9A16
:102A000003920F2B83D90F23AA4200D000E74B4635
:102A1000002B56DB1D2B00D910E71E230493C5E7BE
:102A20004B4609A95A1C13F003FC43E7039B002BF8
:102A300000D11EE738005B465044012B1FD05A4698
:102A4000039913F0F5FB14E7994500D863E7ECE62A
:102A50001AF084FE5346039A1B7813700D9B039360
:102A60007AE7059B1B780370FCE62900013213F01E
:102A7000DFFB84E70FAD01220D950DACABE6039BA8
:102A80001B780370F5E6002BA2D1ADE7039B1B7802
:102A90000370A9E72096021054950210FFFFFF7FF4
:102AA000249502105B4600220193200053460399AF
:102AB00000971AF02DFF0D9B03934DE702481AF083
:102AC00085FE02481AF082FE089502103C9502101D
:102AD0002C23F0B5C64698460C008844060000B585
:102AE000404626F0A5FC220046234732E75C557895
:102AF0000133E35C2D021D4300236234BFF35B8F7F
:102B00002370BFF35B8F404626F0BAFB314B2C0499
:102B1000180098461AF00AFD3C432F4D002837D183
:102B2000230230D52B68A3422DD12C4A13780133D0
:102B3000DBB2042B31D900231370294B9C422ED0D9
:102B4000284B9C4232D0284B9C4231D0E0239B043E
:102B50009C422FD0254B9C422ED0254B9C422DD001
:102B6000244B9C422CD0244B9C422BD0234B9C4288
:102B70002AD0234B9C4229D0043B9C4228D00020E1
:102B800080BCB846F0BD0022144B2C601A70F6E7EA
:102B900040462C601AF0E6FCC2E71370EFE7012311
:102BA000327F9A42EBD001203377E9E70223F7E73F
:102BB0000323F5E76423F3E70823F1E70A23EFE7AC
:102BC0000523EDE70423EBE70623E9E70723E7E71F
:102BD0000923E5E7106100209C620020809100201D
:102BE00008008000080080020800800104008002C4
:102BF00002008000010081000100800004008000CC
:102C000004008100F0B54E464546DE465746E0B525
:102C100013780500013B1600002087B0072B06D96A
:102C200007B0F0BCBB46B246A946A046F0BDFFF7D0
:102C300051FAAB690022290068469B46FFF790FDD8
:102C4000019BE9460E2B2AD8404B009C190020001E
:102C5000984625F08DFB002822D0584626F0E8FB48
:102C6000009B01279A463A4C0AE05146200025F085
:102C70007FFB00280AD001340137FF343F2F60D09A
:102C80004146200025F074FB0028EED138000123D6
:102C900032004946FFF74CFB584626F0F1FA009CFB
:102CA00002AFBC4205D04B4699682000013113F0B9
:102CB000CDFAAB692900484632789A46FFF79AFB6D
:102CC0004B465B680E2B2AD8204B009C1900200035
:102CD000984625F04DFB002822D0504626F0A8FB50
:102CE000009B01259B461A4C0AE05946200025F01E
:102CF0003FFB00280AD001340135FF343F2D1BD0A3
:102D00004146200025F034FB0028EED12800BE23E8
:102D100032004946FFF70CFB504626F0B1FA009C02
:102D2000BC4205D04B4699682000013113F08EFA61
:102D3000FFF70CFA012073E7504626F0A1FA009C39
:102D4000EEE7584626F09CFA009CA9E710AA02106C
:102D500000C11F10F0B55746DE464E464546E0B569
:102D60008BB002AA9A4694460723634419709B4687
:102D700053461B780700013B072B00D9CAE0CBB2B2
:102D80005A1E092A04D9642B02D005235A4613700F
:102D9000FFF7A0F906AB99464A46BC690493674B16
:102DA000029403CB03C2198804AE11809B782000E3
:102DB00093700B2373600023F37426F039FB049B9C
:102DC0005F4C019301235F4D98460EE0200001996E
:102DD00025F0CEFA00280ED001239C46E04443465D
:102DE0000134FF343F2B00D1A0E02900200025F062
:102DF000BFFA0028EAD1404601235A463100FFF7C6
:102E000097FA029826F03CFA0498484503D0B16836
:102E1000013113F01BFABB69002239003000019325
:102E2000FFF79EFC73680E2B2CD8049C2900200011
:102E300025F09EFA002826D0019826F0F9FA049B86
:102E40003F4C9B46012398460DE05946200025F053
:102E50008FFA00280DD001239C46E04443460134FC
:102E6000FF343F2B5ED02900200025F081FA002896
:102E7000EBD14046012352463100FFF759FA019841
:102E800026F0FEF9049C4C4504D0B16820000131C5
:102E900013F0DCF9BB6939009846534630001A78C4
:102EA000FFF7A8FA73680E2B28D8049C290020008D
:102EB00025F05EFA002822D0404626F0B9FA049B9D
:102EC00001279B461E4C0AE05946200025F050FA87
:102ED00000280AD001340137FF343F2F2AD02900BF
:102EE000200025F045FA0028EED13800BE235246D6
:102EF0003100FFF71DFA404626F0C2F9049C4C450C
:102F000004D0B1682000013113F0A0F9FFF71EF9D9
:102F1000012000E000200BB0F0BCBB46B246A94641
:102F2000A046F0BD019826F0ABF9ABE7029826F079
:102F3000A7F969E7404626F0A3F9DFE72C960210CF
:102F400000C11F1010AA0210F0B54646D6464F46E3
:102F5000C0B588B06B46DE1D3170CBB201390400BC
:102F6000092907D9642B05D008B0E0BCBA46B146A0
:102F7000A846F0BD04AFFFF7ADF83A00A369029789
:102F800098461F4B012503CB03C219884046118088
:102F90009B781C4C93700B236A4603930023D376D3
:102FA00026F046FA029B9A46174B99460AE051468C
:102FB000200025F0DDF900280AD001340135FF3466
:102FC0003F2D18D04946200025F0D2F90028EED137
:102FD00028000123320002A9FFF7AAF9404626F093
:102FE0004FF90298B84203D00499013113F02EF939
:102FF000FFF7ACF8B8E7404626F042F9F1E7C046E3
:103000002C96021000C11F1010AA0210F0B54E46F7
:103010005746DE464546E0B5B9B00600894608AFDA
:10302000002A5DD001239B46380000F05FFB4B4631
:103030009B695A46019302AB984618004946FFF730
:10304000D9F9424653680E2B24D8029C514D2000DA
:10305000290025F08DF900281ED104AB9C4205D033
:10306000434699682000013113F0F0F83B785B4546
:1030700000D07DE0BE223900300013F0D9F83000D6
:1030800039B0F0BCBB46B246A946A046F0BD019897
:1030900026F0F6F8029CE0E7019826F0C9F9029BB9
:1030A0003D4C99463D4B9A4609E02900200025F009
:1030B0005FF90028EBD00134FF345445E7D049468E
:1030C000200025F055F90028EFD12100BE22103153
:1030D000380013F0ADF8019826F0D2F8029CBCE756
:1030E0008B6908AF002238009A46FFF739FB7B68EE
:1030F000089C0E2B32D8274D2000290025F038F9E6
:1031000000282BD0504626F093F9089B224C984675
:10311000224B9B4609E02900200025F029F90028D0
:103120002AD00134FF345C4526D04146200025F0EA
:103130001FF90028EFD1237C50469B4626F0A0F8CB
:1031400008980AAB984203D0B968013113F07EF8B1
:103150005B46013B072B00D866E763E70AAB9C425E
:1031600000D15FE7B9682000013113F06FF859E72B
:10317000300000F0BBFA82E7504626F081F808984C
:103180000AAB984200D14DE7B968013113F05EF8FF
:1031900048E7C04610AA021000C11F1000FF1F1010
:1031A000F0B5DE4657464E4645460C00E0B51600E3
:1031B000B9B008AB05001800994602AF00F096FAC6
:1031C000A3693200210038000193FFF713F97B68EF
:1031D0000E2B24D8274A029C11002000904625F08F
:1031E000C7F800281DD104AB9C4204D0B968200068
:1031F000013113F02BF84B461B78B34235D1BE2278
:103200004946280013F014F8280039B0F0BCBB463A
:10321000B246A946A046F0BD019826F031F8029CBE
:10322000E1E7019826F004F9029B134C9A46134BF0
:103230009B4609E04146200025F09AF80028EBD093
:103240000134FF345C45E7D05146200025F090F86A
:103250000028EFD12100BE221031484612F0E8FFCD
:10326000019826F00DF8029CBDE7280000F03EFA18
:10327000CAE7C04610AA021000C11F1000FF1F10AD
:10328000092200204B1EDBB264399A4240414B4276
:10329000594108437047C046F0B54E464546DE46A4
:1032A0005746E0B5067F050089B0002E07D03000F4
:1032B00009B0F0BCBB46B246A946A046F0BD04AF7B
:1032C0003A0002AB99468469214B0194029703CBE3
:1032D00003C21988200011809B781E4C93700B2329
:1032E0004A465360D67426F0A3F8029B98461A4BC0
:1032F0009A461A4B9B4609E05146200025F038F8C3
:10330000002820D00134FF345C451CD04146200009
:1033100025F02EF80028EFD10198267C25F0B0FF8B
:103320000298B84204D04B469968013112F08EFFE2
:10333000731E092B05D9642E03D0052305262B7790
:10334000B5E72E77B3E7019825F09AFFE8E7C04686
:103350002C96021000C11F1010AA021000FF1F10AF
:10336000F0B557464E464546DE46E0B58369CBB0DC
:103370009A460CAB0A93D64B81461A0001930CABCC
:1033800003CA03C312780AAC1A70092363600023CE
:103390005046637426F04CF8CE4B0A9F9846CE4DAB
:1033A000CE4E0AE031002800B34624F0E1FF0028A9
:1033B0001FD00135FF3545451BD03900280024F0CA
:1033C000D7FF0028EED150462D7C25F059FF0A98F2
:1033D0000CAB984203D0A168013112F037FFF82DF1
:1033E00000D06FE14BB0F0BCBB46B246A946A04648
:1033F000F0BD504625F044FF0A980CAB984203D02C
:10340000A168013112F022FF4B469F69380026F077
:103410000FF88021FE204901400325F099FF80210B
:10342000AF48490125F094FF8021FF204901400366
:1034300025F08EFF8021AB48490125F089FF00234C
:103440000F225946E373200024F0B6FEFE25F02239
:10345000FF2180260EA812F0E5FE6D03B603802240
:103460002800013521005200FF3525F041FFB5420B
:10347000F5D1380025F004FF052302AAD3714B468D
:103480009B690CAA98460CAB0A93974B012603CB79
:1034900003C21988404611809B788F4D93700B238F
:1034A00063600023E37425F0C3FF0A9F0BE039003B
:1034B000280024F05DFF00280BD001350136FF35D0
:1034C0003F2E00D1F1E05946280024F051FF00289A
:1034D000EDD102AA3000012321000732FEF728FFB8
:1034E000404625F0CDFE0A980CAB984203D0A16867
:1034F000013112F0ABFE04AB984601234246137033
:103500004B469B690022494620009A46FFF728F95E
:1035100063680E2B2CD80A9D5946280024F028FFFA
:10352000002826D0504625F083FF5B460A9F0126DF
:10353000BB46694D1F000BE05946280024F018FFD8
:1035400000280BD001350136FF353F2E00D1B4E005
:103550003900280024F00CFF0028EDD130000123B1
:1035600042462100FEF7E4FE5046BB4625F088FEA9
:103570000A9D0CAB9D4204D0A1682800013112F0D5
:1035800065FE200000F0B2F800274B4601379E6927
:10359000FFB23A004946404627700096FEF72AFFE0
:1035A00043465B680E2B30D843461D6859462800B9
:1035B00024F0DEFE00282AD0300025F039FF4346F3
:1035C0001B6801269A465B46434DBB461F000AE036
:1035D0005146280024F0CCFE00280AD001350136DF
:1035E000FF353F2E5AD03900280024F0C1FE0028B4
:1035F000EED13B0030005F4622009B464146BE2391
:10360000FEF796FE009825F03BFE43461D6806AB8C
:103610009D4205D0434699682800013112F016FEFC
:10362000082FB2D1F823424613704B46019A9F6986
:103630000CAB0A9303CA03C3127838001A7009232B
:1036400063600023637425F0F3FE0A9B012699460C
:10365000214D0AE04946280024F08AFE00280AD0BD
:1036600001350136FF353F2E23D05946280024F07E
:103670007FFE0028EED13000012342462100FEF7F4
:1036800057FE380025F0FCFD0A980CAB984200D19B
:10369000A8E6A168013112F0D9FDA3E63B0000982D
:1036A0005F469B4625F0ECFDAFE7404625F0E8FD80
:1036B00019E7380025F0E4FDE6E75046BB4625F063
:1036C000DFFD55E74B469F69044B9B469EE6C0468F
:1036D000F094021000FF1F1000C11F1010AA02106A
:1036E00000D01F0000F01F002C9602100023F0B540
:1036F0000122CE4647462024411C80B5A146437096
:103700004B708B70CB700B714B718A71CB710B72DC
:103710004B728B72CB720B734B738B73CB730B74BB
:103720004B748B74CB740B754B758B75CB750B769B
:103730004B768B76CB760B774B778A77CB770B559F
:1037400001340B5501340B5501340B5501340B5525
:1037500001340B5501340B5501340B5501340B5515
:1037600001340B5501340A5501340B5501340B5506
:1037700001340B5501340A5501340B5501340B55F6
:1037800001340B5501340A5501340B5534310A709C
:103790004B708B70382143540131435401314354F1
:1037A00001314354013143540131435401314254F6
:1037B00001314354013143548C46013143540131AA
:1037C00043540131435401314354013143540131D5
:1037D00043540131435401314354013143540131C5
:1037E00043540131435401314354013143540131B5
:1037F00043540131435401314354013143540131A5
:103800004354013143540131435401314354013194
:103810004254013143540131435401314354013185
:103820004354013143540131435401314354013174
:103830004354013143540131435401314354013164
:103840004254013143540131435401314354013155
:103850004254013143540131435401314354013145
:1038600042540131435401006C314B708B700A702B
:103870006F21435401006F314B708B70CB700B7113
:103880004B718A71CB710B724B728B72CB720B7353
:103890004B738A73CB730B744B748A74CB74832110
:1038A0004354010083314B708B70CB700B714B71A3
:1038B0008A71CB710B724B728B72CB720B734B7321
:1038C0008A73CB730B744B748A74CB749721022563
:1038D0009A2702704254013145542F3C013144541F
:1038E0009139C1550137C25507009B377B709D2721
:1038F000C55507009D377B709F27C45507009F372C
:103900007B70A127C1550700A1377B70A326102724
:1039100087550700A3377B704E46A527C65506007E
:10392000A53673706746A72687550600A7367370BD
:10393000A926C03F87550600A9367370AB2683556C
:103940000600AB367270AD2683550600AD36757035
:10395000AF2683550600AF367470B1268355060036
:10396000B1367170B326825501368355B533C254D2
:103970000133C55402320133C2540133C4540232FC
:103980000133C25401330132C25401330132C254F3
:103990000133C15402320133C254C0BCB946B046EF
:1039A000F0BDC0464B780A781B0213438A7810B5E5
:1039B00012041A43CB7804001B061343026800204C
:1039C000934200D010BD4B790A791B0213438A79C8
:1039D00012041A43CB791B06134362689342F1D158
:1039E0004B7A0A7A1B0213438A7A12041A43CB7A5F
:1039F0001B061343A2689342E4D14B7B0A7B1B0254
:103A000013438A7B12041A43CB7B1B061343E268E1
:103A10009342D7D14B7C0A7C1B0213438A7C12044D
:103A20001A43CB7C1B06134322699342CAD14B7DB8
:103A30000A7D1B0213438A7D12041A43CB7D1B06A9
:103A4000134362699342BDD14B7E0A7E1B0213432E
:103A50008A7E12041A43CB7E1B061343A26993424B
:103A6000B0D14B7F0A7F1B0213438A7F12041A4393
:103A7000CB7F1B061343E2699342A3D12023CA5C88
:103A80000133CB5C1B02134322228A5C12041A43CB
:103A90002323CB5C1B061343226A934200D091E799
:103AA0002423CA5C0133CB5C1B02134326228A5CAD
:103AB00012041A432723CB5C1B061343626A93420A
:103AC00000D07FE72823CA5C0133CB5C1B02134381
:103AD0002A228A5C12041A432B23CB5C1B06134355
:103AE000A26A934200D06DE72C23CA5C0133CB5C01
:103AF0001B0213432E228A5C12041A432F23CB5C31
:103B00001B061343E26A934200D05BE73023CA5C92
:103B10000133CB5C1B02134332228A5C12041A432A
:103B20003323CB5C1B061343226B934200D049E73F
:103B30003423E25CCB5C9A4200D043E73523E25C5D
:103B4000CB5C9A4200D03DE73623E05CCB5CC01AE8
:103B500043425841C0B235E74B780A781B02134301
:103B60008A7810B512041A43CB781B0613430360FE
:103B70004B790A791B0213438A7912041A43CB79D1
:103B80001B06134343604B7A0A7A1B0213438A7A5B
:103B900012041A43CB7A1B06134383604B7B0A7BC8
:103BA0001B0213438A7B12041A43CB7B1B0613436D
:103BB000C3604B7C0A7C1B0213438A7C12041A43A9
:103BC000CB7C1B06134303614B7D0A7D1B02134311
:103BD0008A7D12041A43CB7D1B06134343610A7E80
:103BE0004B7E1B0213438A7E12041A43CB7E1B06B4
:103BF000134383614B7F0A7F1B0213438A7F1204A6
:103C00001A43CB7F1B061343C3612023CA5C0133D5
:103C1000CB5C1B02134322228A5C12041A43232327
:103C2000CB5C1B06134303622423CA5C0133CB5CC9
:103C30001B02134326228A5C12041A432723CB5CFF
:103C40001B06134343622823CA5C0133CB5C1B026F
:103C500013432A228A5C12041A432B23CB5C1B06D3
:103C6000134383622C23CA5C0133CB5C1B021343D6
:103C70002E228A5C12041A432F23CB5C1B061343AB
:103C8000C3623023CA5C0133CB5C1B021343322274
:103C90008A5C12041A433323CB5C1B061343342281
:103CA00003638B5C5C1EA341835401328B5C5C1EFE
:103CB000A341835401328B5C591E8B41835410BD48
:103CC0004B780A781B0213438A7810B512041A4302
:103CD000CB7804001B06134302680020934200D0F7
:103CE00010BD4B790A791B0213438A7912041A43D7
:103CF000CB791B06134362689342F1D14B7A0A7A5F
:103D00001B0213438A7A12041A43CB7A1B0613430D
:103D1000A2689342E4D14B7B0A7B1B0213438A7B4C
:103D200012041A43CB7B1B061343E2689342D7D19C
:103D30004A7C0B7C12021A438B7CC87C1B04134305
:103D4000000618432369C01A43425841C0B2C7E76E
:103D50004B780A781B0213438A7812041A43CB78F3
:103D60001B06134303604B790A791B0213438A79BC
:103D700012041A43CB791B06134343604B7A0A7A29
:103D80001B0213438A7A12041A43CB7A1B0613438D
:103D900083604B7B0A7B1B0213438A7B12041A430A
:103DA000CB7B1B061343C3604B7C0A7C1B02134373
:103DB0008A7C12041A43CB7C1B06134303617047B1
:103DC000044B10B51868002802D0242112F03EFAE6
:103DD00010BDC046E4620020012310B5084C0370FA
:103DE000200019F0A3FB002803D1064B186804300B
:103DF00010BD054822F0E6FE200019F0B3FBF4E701
:103E000014610020E4620020C13D0010F0B5474677
:103E1000CE4680B583B01F006B461B8D04009946CB
:103E20000F4B0D0018001600984619F07FFB002874
:103E30000FD14A460B4B2100186803680192009786
:103E40009F682A003300B84703B0C0BCB946B046EB
:103E5000F0BD054822F0B6FE404619F083FBE8E7C6
:103E600014610020E4620020C13D0010F0B5474617
:103E7000CE4680B583B01D006B461B8D060098466C
:103E8000134B0C0018001700994619F04FFB00283F
:103E900016D142460F4B3100186803680192009515
:103EA000DB68220099463B00C84743462A002100B0
:103EB000002015F01BFD03B0C0BCB946B046F0BDF4
:103EC000054822F07FFE484619F04CFBE1E7C0466A
:103ED00014610020E4620020C13D0010F8B50C4FD1
:103EE000040038000D00160019F020FB002808D14E
:103EF000084B2A001868210003681F693300B8477F
:103F0000F8BD054822F05EFE380019F02BFBEFE704
:103F100014610020E4620020C13D001070B50B4E1A
:103F2000040030000D0019F001FB002807D1084BF8
:103F30002A001868210003685B69984770BD05482E
:103F400022F040FE300019F00DFBF0E71461002074
:103F5000E4620020C13D001010B5094C200019F0AA
:103F6000E5FA002805D1074B186803689B69984754
:103F700010BD054822F026FE200019F0F3FAF2E702
:103F800014610020E4620020C13D001070B50A4DAC
:103F90000400280019F0CAFA002806D1074B2100B6
:103FA00018680368DB69984770BD054822F00AFE6F
:103FB000280019F0D7FAF1E714610020E46200202C
:103FC000C13D001070B50A4D0400280019F0AEFA8A
:103FD000002806D1074B2100186803681B6A984720
:103FE00070BD054822F0EEFD280019F0BBFAF1E79C
:103FF00014610020E4620020C13D001010B5094C9E
:10400000200019F093FA002805D1074B18680368BF
:104010005B6A984710BD054822F0D4FD200019F0D6
:10402000A1FAF2E714610020E4620020C13D001013
:10403000054B10B51A0018680832904203D09968F1
:10404000013112F003F910BD7C6200200123F0B5AC
:104050005746DE464E464546E321824683460400E7
:104060009C46E0B52D4E890005682D4F56445144BD
:10407000ED0FEB079846424665686B005B081343FB
:104080005A08904604CE91464246484642409046E1
:104090006246134042465B423B40534008C4A14243
:1040A000E6D1E3235246C62701259B00FF00D458E2
:1040B0001B4E5744E00F4C68C00763005B08034386
:1040C0005A0894465A4601CA2B40934662465B42C0
:1040D00050403340434008C1BB45EBD153465246A4
:1040E000C62450460F4912685B585200DB0F520835
:1040F000DB071343E40004591D405A086D42354064
:1041000062406A409C23425000221B01C250F0BC16
:10411000BB46B246A946A046F0BDC04634060000E4
:10412000DFB00899BC090000F0B58F4C1122A544FE
:104130008E490400023012F07BF801218C4A8D4E2A
:104140008D4D019202A86E44930F53406B435A1851
:1041500004C001318642F7D19C269C2701AD36016F
:104160002800BF00AF51FFF771FFAB5983485A1CBD
:104170009B005B59AA51D90A5940CB0103404B40DF
:104180007F48D90301404B40990C4B401B0EA37153
:10419000BA4200D3BFE0511C9200AB587748DA0A0C
:1041A0005340DA01024053407548DA03024053405D
:1041B0009A0C53401B0E9C26E3719C233601A95197
:1041C0009B00994200D3C9E04A1C89006B586B4898
:1041D000D90A4B40D90101404B406948D9030140FD
:1041E0004B40990C4B401B0E9C2623729C2336019E
:1041F000AA519B009A4200D3ABE0511C9200AA58EE
:104200005E48D30A5A40D30103405A405C48D30366
:10421000034053409A0C53401B0E9C26A3729C23D0
:104220003601A9519B00994200D38DE04A1C8900B8
:1042300069585248CB0A4B40D90101405940504877
:10424000CB0303404B40990C4B401B0E9C26E37262
:104250009C233601AA519B009A4200D36FE0531C65
:104260009200A9584548CA0A4A40D101014051402C
:104270004348CA0302404A40910C4A40120E9C2611
:1042800022739C223601AB519200934252D25A1CA7
:104290009B00EB583948D90A4B40D90101404B40AB
:1042A0003748D90301404B40990C4B401B0E9C26CC
:1042B00063739C233601AA519B009A4235D2511C4C
:1042C0009200AA582D48D30A5340DA0102405340C5
:1042D0002B48DA03024053409A0C53401B0E9C2695
:1042E000A3739C233601A9519B00994218D2200048
:1042F00089006B582149DA0A5340DA010A405340D9
:104300001F49DA030A4053409A0C53401B0EE373D3
:104310001C4B9D44F0BD2800FFF798FEAA593AE7D0
:104320002800FFF793FEA959E1E72800FFF78EFE6A
:10433000AA59C4E72800FFF789FEAB59A7E7280070
:10434000FFF784FEAA598AE72800FFF77FFEA959E4
:104350006CE72800FFF77AFEAA594EE72800FFF71E
:1043600075FEA95930E7C04634F6FFFF5CAA02107B
:1043700039300000C40900006589076C80562C9D07
:104380000000C6EFCC090000F0B54546DE465746B2
:104390004E46E0B514000500C1B00A2908D800292E
:1043A0002DD00A2900D960E1D34B89005B589F4684
:1043B000642924D1E82011F041FF0400E822002103
:1043C00011F030FFCD4B2360CD4B1800994619F00A
:1043D000ADF8CC4F002800D057E1200067622830AC
:1043E000FFF784F928682C60002800D1B5E024216B
:1043F00011F02CFF2C6823681B682000984741B0FF
:10440000F0BCBB46B246A946A046F0BD282011F03C
:1044100015FF04002822002111F004FFBA4B286880
:1044200023602C600028E2D1B84BE6E72C2011F085
:1044300005FF04002C22002111F0F4FE2000B44BF3
:104440000822B4492360243011F0F2FE28682C6061
:104450000028CCD1B04BD0E7402011F0EFFE040093
:1044600026004022002111F0DDFEAC4B2436142240
:1044700000212360300011F0D5FE14232000082213
:1044800000217370383011F0CDFE28682C600028B0
:10449000ADD1A34BB1E7982011F0D0FE06009822D1
:1044A000002111F0BFFE30009E4B3022002133600E
:1044B000253011F0B7FE01222423F25433007F216E
:1044C00024339971D971197259727D395977EC3148
:1044D0009977DE39D97753233100F2545331543B65
:1044E0004B7051217254310051314B704F21725435
:1044F00031004F314B704D217254320030004D323B
:10450000537000210D22783011F08CFE30002322F0
:104510008549553011F08CFE30008530FFF704FEE0
:10452000002297232868F2542E60002802D024210C
:1045300011F08CFE220066320121BFF35B8F1170F7
:10454000BFF35B8F23006533BFF35B8F1B78BFF333
:104550005B8FDBB2002B74D12C6823681B684CE79F
:10456000882011F06BFE06008822002111F05AFE0F
:104570006E4B286833602E600028D8D1DAE73820E7
:1045800011F05CFE06003822002111F04BFE3000D5
:10459000674B132200213360243011F043FE28685A
:1045A0002E600028C3D1C5E7302011F047FE04007B
:1045B0003022002111F036FE5E4B286823602C600B
:1045C000002800D013E75C4B17E7402011F036FEBF
:1045D000040026004022002111F024FE574B24360F
:1045E000142200212360300011F01CFE142320004F
:1045F000082200217370383011F014FE28682C60F6
:10460000002800D0F3E64E4BF7E6802011F016FEAE
:1046100004008022002111F005FE4A4B0122236094
:1046200080231B026362A362C8235B00A385286802
:104630005D3BFF3BE2542C60002800D0D7E6424BA4
:10464000DBE6BFF35B8F1378BFF35B8FDBB2002B2E
:1046500082D06723E35C002B00D17DE76434BFF395
:104660005B8F2170BFF35B8F76E7402011F0E6FD92
:1046700006004022002111F0D5FD344B286833603C
:104680002E60002800D052E754E73B001420083386
:104690003B6011F0D3FD1323984613222C490600EA
:1046A000BB60386011F0C4FD43467B600023F374A7
:1046B0009846284B18009B4618F038FF264B9A4620
:1046C00000280AD15346BB61002324483B7722F0DF
:1046D00079FA484618F046FF7FE618000FF0E8FB2D
:1046E0001F4E2048310023F043FE00283CD158469D
:1046F00018F038FFE6E7C04630AA021048B80210AA
:104700000C6100207C620020D0AA02103D480010FD
:10471000E0B1021094AA0210595B0010D8B3021045
:10472000515E001020AC021070AA0210DCAE021024
:10473000F8B6021044B60210C173001028B302107C
:10474000AD5B00104CB50210F1630010C8B402104C
:10475000A8940210446100201C6300203140001026
:1047600010AA021000C01F10504624F061FE8021E4
:10477000FE204901400324F0EBFD80211748490148
:1047800024F0E6FD8021FF204901400324F0E0FDF4
:1047900080211348490124F0DBFD6B46424631007D
:1047A000DA7368460F2223F007FDF022FF2104A8E8
:1047B00011F038FD8023FE269B0398467603802265
:1047C0003000013669465200FF3624F091FD46451F
:1047D000F5D1504624F054FD89E7C04600D01F00B3
:1047E00000F01F0070B50C00002A0ED0080023F066
:1047F00049FE02001F2816D8002817D0C025531CD8
:104800005B00AD001D43ADB202E0C1250122AD0049
:10481000074BA018227801341A800233A042F9D144
:104820000448058070BD1F220028E7D1024DF7E73C
:104830003E6200203C6200200203000010B5044BE1
:10484000043016CB16C016CB16C006CB06C010BD62
:10485000A4AB02107047C046002070470048704764
:1048600050AB021000487047F8AA02100048704789
:104870002CAB0210002070476223F0B557464E461D
:104880004546DE469946E0B5140005000F0089B0A4
:1048900091444B46BFF35B8F1B78BFF35B8FDBB25A
:1048A000002B0FD113F0B0FE002853D1380015F0C3
:1048B00001F8002846D109B0F0BCBB46B246A94673
:1048C000A046F0BD2C239B469344584624F0B0FDEF
:1048D0004623E35C48229A464723A65CE35C360203
:1048E0001E434923E35C04934A23E35C05934B2373
:1048F000E25C0133E35C1B0213431B041B140393B0
:10490000E36C1B021B1498464F23E25C0133E35C0B
:104910001B0213431B041B140693246D240224144E
:1049200000234A46BFF35B8F1370BFF35B8F58467B
:1049300024F0A6FC53460A2B00D98BE0CD4A9B00FD
:10494000D3589F462A00022300213800243214F055
:10495000CDFFB0E713F060FEA8E7C74BC7499A4602
:10496000C74BC8480293C84B0193C84B9B46C84BE2
:104970009C46043BC74A9146904500D1E3E042463D
:10498000524212B24C4500D117E1644224B207945E
:10499000C14CA046039C444500DDFBE0069C444519
:1049A00000DDF7E0BD4CA146039C4C4500DADBE19D
:1049B000069C4C4500DAD7E14A4500DB07E290222D
:1049C000B74B92019A46B74BB7490293B74BB848D9
:1049D0000193B84B9B46B84B9C461300F40700D597
:1049E000A9E0AA84B20702D551460300A884720741
:1049F00001D50B00A984320703D5012213439BB2D2
:104A0000AB84F20503D5402213439BB2AB84B205BD
:104A100003D5802213439BB2AB84720604D5802257
:104A2000520013439BB2AB84360604D58022920019
:104A300013439BB2AB84049A002A03D01022134381
:104A40009BB2AB84059A002A00D12BE720221343A6
:104A5000AB8427E7994B9A499A469A4B9A48029316
:104A60009A4B01939A4B9B469A4B9C46043B81E799
:104A70008121994B99489A46994BC9000293994BC9
:104A80000193994B9B46994B9C46043B72E7984B8C
:104A900098499A46984B99480293994B0193994BA0
:104AA0009B46994B9C46043B64E70A239A46023393
:104AB000029302330193083B9B46023B9C4608212C
:104AC0000220002356E7914B91499A46914B924818
:104AD0000293924B0193924B9B46924B9C46043B14
:104AE00048E7914B91499A46914B92480293924BD9
:104AF0000193924B9B46924B9C46043B3AE7914B69
:104B000091499A46914B92480293924B0193924B52
:104B10009B46924B9C46043B2CE7614B62499A466C
:104B2000604B63480293614B0193624B9B46624B1F
:104B30009C46043B1EE76346AB84019B58469A465D
:104B4000029963464EE7444560D0534B039A644252
:104B500024B29A4243DC069A9A4240DC4F4B0399B6
:104B6000994200DA13E19A4200DA10E19C4200DA3D
:104B700025E780228121584BD2009A46584B57484E
:104B80000293584BC9000193574B9B46574B9C4689
:104B9000130023E7724B9A4253DAA022364B92015C
:104BA0009A46374B35490293374B36480193374B7A
:104BB0009B46374B9C46130010E7374B03999942AD
:104BC00020DC069898421DDC344B994200DAE2E082
:104BD000984200DADFE09A4200DAF0E6C9E7604B7B
:104BE0009C42DADB8022574B12019A46574B5649BA
:104BF0000293584B56480193574B9B46574B9C4644
:104C00001300EBE6564B9A42C7DBEBE7224B039AC5
:104C10009A42E7DC06999942E4DC204B9A4201DB98
:104C20009942A6DA0A230022082102209A4602337A
:104C3000029302330193083B9B46023B9C460023B0
:104C4000CCE607999942A8DB464B9A42CADC9942C6
:104C5000C8DCC022344B52019A46354B334902938B
:104C6000354B34480193354B9B46354B9C461300DE
:104C7000B4E6C0469CAA02100A28000008280000DA
:104C80000C280000022800000E2800000628000062
:104C9000042800000080FFFF0F270000F1D8FFFF6D
:104CA0000A2400000C240000082400000E24000048
:104CB0000224000006240000042400000A1400005E
:104CC000081400000C140000021400000E14000070
:104CD00006140000041400000A040000020400008E
:104CE0000C0400000E040000060400000404000090
:104CF0000A100000081000000C1000000210000054
:104D00000E10000006100000041000000A20000031
:104D1000082000000C200000022000000E200000EF
:104D200006200000042000000A18000008180000F7
:104D30000C180000021800000E18000006180000F1
:104D4000041800000A080000080800000C08000011
:104D5000020800000E080000060800000408000019
:104D6000E1B1FFFF1F4E00002B4B9A4217DA802261
:104D70002A4B92019A462A4B2A4902932A4B2B48E6
:104D800001932B4B9B462B4B9C46130026E6224B54
:104D90009C42ECDB46E7204B9A42E8DB42E707996E
:104DA0009942E4DB244B9A4226DC99421BDC8022A8
:104DB000224B52019A46224B22490293224B23480E
:104DC0000193234B9B46234B9C46130006E6079C0E
:104DD0004C4500DAF3E5424500DDCAE6444500DD16
:104DE000C7E61A00FAE50A2302209A461B18029326
:104DF000002208211B181DE70A23022000229A46E0
:104E00001B1802931B180193083B9B46023B9C46D0
:104E100008211300E2E5C046E1B1FFFF0A200000CF
:104E20000C200000082000000E20000002200000DE
:104E300006200000042000001F4E00000A100000A1
:104E40000C100000081000000E10000002100000FE
:104E50000610000004100000010010B502220298A4
:104E6000243111F0E5F9022010BDC04610B5034B06
:104E70000A008900C958FFF7B5FC10BD64AB0210E9
:104E800010B5044B043016CB16C016CB16C006CB9B
:104E900006C010BD88AE0210002070470048704761
:104EA00038AE021000487047A4AD021000487047A9
:104EB00078AD0210002070476223F0B54546DE460B
:104EC00057464E469846E0B5040015009DB0904404
:104ED0004346BFF35B8F1B78BFF35B8FDBB2002BC6
:104EE00035D113F091FB002800D0A6E1002014F08A
:104EF000E1FC002800D0A8E19727E35D002B1FD03C
:104F00005923E35C98465723E65C731E9E41342385
:104F10009946A944484624F08BFA442342467642F7
:104F2000EA54F6B20133EE5401236335BFF35B8FCD
:104F30002B70BFF35B8F484624F0A2F90023E355A2
:104F40001DB0F0BCBB46B246A946A046F0BD2C231E
:104F50009B469344584624F06BFA46234822EF5C64
:104F6000AE5C0133EB5C36021E434923EB5C9A4690
:104F70004A23EB5C99464B23EA5C0133EB5C1B0252
:104F800013431B041B140393EB6C1B021B140293AF
:104F90004F23EA5C0133EB5C1B0213431B041B141D
:104FA00001932B6D1B021B1400935723EB5C08939A
:104FB0005823EB5C06935923EB5C05935A23EB5C77
:104FC00004935B23EB5C09935C23EB5C0793002366
:104FD0004246BFF35B8F1370BFF35B8F584624F0DC
:104FE0004FF90EAB28220021581D11F01BF90123A7
:104FF0000EAA1371D34A0EA921204A818A81022266
:1050000009180A70D04A0EA94A840A002D215218A4
:10501000137001220D300EA9524209180A70013096
:105020000EA909180B7001300EA909180A70013079
:105030000EA909180B7001300EA909180A70013069
:105040000EA909180B70342120000EAB5B181A70E2
:105050000FA93232243011F0EBF80A2F06D8BB4AE0
:10506000BB00D3589F4626231022E25404231A0083
:1050700032400D92334202D080222333E254012386
:105080001A0032400C92334204D027224021A35C04
:105090000B43A35408231A0032400B92334204D02E
:1050A00027221021A35C0B43A35402231A00324091
:1050B0000A92334204D027222021A35C0B43A3543D
:1050C000802332005B001A4090461E4204D0272203
:1050D0000421A35C0B43A354802332009B001A409D
:1050E00093461E4204D027220821A35C0B43A354FD
:1050F000730604D526220121A35C0B43A354330677
:1051000004D526220821A35C0B43A354F30604D53F
:1051100026220221A35C0B43A354B30604D5262206
:105120000421A35C0B43A354730502D52823012259
:10513000E254360504D528220221A35C0B43A35474
:105140005346002B04D027220121A35C0B43A35418
:105150004B46002B04D027220221A35C0B43A3540F
:1051600036235246E2544A4679480399013384462D
:10517000E2540B00774A63449BB27F20934200D9EC
:1051800085E02A230299E05471480B008446714A55
:1051900063449BB27F20934200D985E02B23019981
:1051A000E0546B480B0084466A4A63449BB27F20FC
:1051B000934252D82C230099E05465480B00844652
:1051C000644A63449BB27F20934253D82D23E0541A
:1051D0002B00643318787B073A07B907FF07DB1702
:1051E000D217C917FF17C0B2DBB2D2B2C9B2FFB231
:1051F000002866D03C20089E2654059E0130265487
:10520000049E07983604B446099E00020643300007
:10521000069E3606B0466646304346463043A06397
:105220003220275402302154332162543522A354B2
:1052300013F0EAF9002800D158E613F0EDF9002048
:1052400014F038FB002800D156E62200312300215B
:105250002432002014F04AFB4EE6802212020B009A
:1052600094466344D801C01A3B49400010F062F8EC
:10527000C0B29FE7802212020B0094466344D8011B
:10528000C01A3549400010F055F8C0B29EE78022A0
:1052900012020B0094466344D801C01A2E49400004
:1052A00010F048F8C0B26CE7802212020B0094465E
:1052B0006344D801C01A2849400010F03BF8C0B23E
:1052C0006CE73220275402302154332162543522B6
:1052D000A3540C9B07325B42A3540D9B01325B0726
:1052E000DB17A35443465A46DB0552080B99DB0FE4
:1052F00013430A9A4903D2050B431343174A11007B
:10530000D21A99434A40A263EBE526236022E25475
:10531000ACE626234022E254A8E626238022E2546B
:10532000A4E626239022E254A0E62623C022E254DB
:105330009CE626232022E25498E626233022E254DB
:1053400094E6C0467F7F0000EE100000C4AB021060
:1053500067060000CE0C0000FFFF00008080808008
:1053600010B502AC02CC2488032B17D0022B00D03E
:1053700010BD002A05D1002CFAD0013C0A78A4B255
:105380000131012AF4D19723C2545530221C302C0C
:1053900000D9302292B210F04BFFE9E7EF2AE7D1B3
:1053A0008A799333C254E3E710B5034B0A008900AE
:1053B000C958FFF717FA10BD4CAE021070B504A91A
:1053C00020C904000E88012B0FD00020032B00D031
:1053D00070BD012A45D01132D2B2092AF8D8244B27
:1053E00092009B589F460020F2E7010031222800DE
:1053F000243110F01DFF3120EAE71E493200280059
:1054000010F016FF9623E35C3000AB71E0E71A4919
:10541000F4E7210032002800853110F009FF300048
:10542000D6E732002800154910F002FF8E23E35C16
:1054300030006B708F23E35CAB709023E35CEB7008
:105440009123E35C2B719223E35C6B719323E35C08
:10545000AB71BDE732002800094910F0E9FE3000C9
:10546000B6E732002800074910F0E2FE3000AFE74F
:10547000F0AB021048AC021008AD0210C8AC02102C
:1054800088AC021038AD021010B5044B043016CBB6
:1054900016C016CB16C006CB06C010BD8CB10210CC
:1054A00000207047004870472CB102100048704738
:1054B00030AF02100048704704AF02100020704760
:1054C000F0B557464546DE464E46E0B517000400A7
:1054D000150085B06237BFF35B8F3B78BFF35B8FFE
:1054E000DBB2002B16D113F08FF8002800D0DBE0E0
:1054F000002014F0DFF9002800D0CDE08426A35D61
:10550000002B00D0AAE005B0F0BCBB46B246A946CD
:10551000A046F0BD2C239B469344584623F088FFB9
:105520004623EB5C482298464723AE5CEB5C360290
:105530001E434923EB5C9A464A23EB5C99464B2376
:10554000EA5C0133EB5C1B0213431B04191400914A
:10555000EB6C1B021B1401934F23EA5C0133EB5CE1
:105560001B0213431B041B1402932B6D1B021B1401
:1055700003930023BFF35B8F3B70BFF35B8F5846F1
:1055800023F07EFE20003B220021293010F04AFE4D
:10559000242301220099E2548C46964B964A634498
:1055A0009BB2802093424ED825230199E054914824
:1055B0000B008446904A63449BB2802093422CD8CF
:1055C00026230299E0548B480B0084468A4A6344A0
:1055D0009BB2802093422BD827230399E05485481F
:1055E0000B008446844A63449BB28020934209D8CE
:1055F0002823E05443460A2B00D9C8E07F4A9B0089
:10560000D3589F4680231B029C4661440800022118
:10561000FF310FF08FFEC0B2EAE780231B029C46E9
:10562000614408000221FF310FF084FEC0B2C7E7D9
:1056300080231B029C46614408000221FF310FF0C9
:1056400079FEC0B2C8E780231B029C466144080073
:105650000221FF310FF06EFEC0B2A5E76823E35CC4
:105660002F00994667233437E35C3800984623F0CF
:10567000DFFE4A464423EA5442460133EA540123FA
:105680006335BFF35B8F2B70BFF35B8F380023F064
:10569000F7FD0023A35536E72200402300212432E2
:1056A000002014F023F929E712F0B6FF20E72923A0
:1056B0000322E2541032263B710702D52923E2541B
:1056C0001300F20704D5202213432922DBB2A3548E
:1056D000B20704D5402213432922DBB2A354320778
:1056E00004D5802252421343A932A354F3057ED538
:1056F0002A230122E2540232293BB10502D52A2392
:10570000E25413005246002A04D0042213432A22F2
:10571000DBB2A3544A46002A04D0082213432A22AB
:10572000DBB2A354720604D5102213432A22DBB243
:10573000A354320604D5202213432A22DBB2A354F9
:10574000F20604D5402213432A22DBB2A354B20648
:1057500004D5802252421343AA32A354730543D482
:1057600002220023360500D41A008521635C581CF0
:105770009B001A432B236054E25452460133E254F7
:105780004A460133E2540B221533E254ABE6292397
:105790000822E2541032213B8EE7102200238BE7CF
:1057A00029230422E2541032253B85E729230622CF
:1057B000E2541032233B7FE729230722E2541032C0
:1057C000223B79E729230522E2541032243B73E778
:1057D00029230222E2541032273B6DE729230122BC
:1057E000E2541032283B67E703220123BAE7022282
:1057F000002382E767060000CE0C0000A8AE02106E
:1058000070B504AA20CA1488012B0AD00020032BEB
:1058100000D070BD22000021280010F003FD200000
:10582000F7E7010040222800243110F001FD40205C
:10583000EFE7C04610B5034B0A008900C958FEF7D0
:10584000D1FF10BD40B1021010B502AC02CC2488CB
:10585000022B00D010BD052A09D0002AFAD1002C55
:10586000F8D00B78052BF5D1013C0131A4B201220F
:105870008423C2546430221C202C00D9202292B2EE
:1058800010F0D6FCE6E7C0467047C04600207047DF
:105890000048704784B20210004870472CB20210D2
:1058A0000048704708B20210002070476223F0B52C
:1058B00057464E464546DE469846E0B5140007007A
:1058C0000E0085B090444346BFF35B8F1B78BFF357
:1058D0005B8FDBB2002B0FD112F096FE002854D163
:1058E000300013F0E7FF002846D105B0F0BCBB46FE
:1058F000B246A946A046F0BD2C239A469244504693
:1059000023F096FD4623E35C482299464723A55C95
:10591000E35C2D021D434923E35C9B464A23E35C81
:1059200000934B23E25C0133E35C1B0213431B0433
:105930001B140193E36C1B021B1402934F23E25CC4
:105940000133E35C1B0213431B041B140393236DFD
:105950001B021C1400234246BFF35B8F1370BFF37E
:105960005B8F504623F08CFC4B460A2B00D9BEE0DF
:105970006A4A9B00D3589F46F3002433FA1800214B
:105980000823300013F0B2FFAFE712F045FEA7E79F
:1059900003212622F300FB18995404210A00022057
:1059A0002A40294201D001220130E90700D5AEE0AA
:1059B000242125205A54110A1954290707D50821F2
:1059C0002420114319548AB22521100A5854A907DA
:1059D00007D504212420114319548AB22521100A25
:1059E0005854E90507D510212420114319548AB2CF
:1059F0002521100A5854A90507D520212420114338
:105A000019548AB22521100A5854690608D58021F4
:105A100024204900114319548AB22521100A5854F0
:105A2000290608D5802124208900114319548AB2FF
:105A30002521100A5854E90608D580212420C900E0
:105A4000114319548AB22521100A5854A90608D5C1
:105A5000802124200901114319548AB22521100AFA
:105A60005854690508D5802124204901114319544F
:105A70008AB22521100A58542D0508D580212420EA
:105A80008901114319548AB22521100A58545946E4
:105A9000002907D040212420114319548AB225211E
:105AA000100A58540099002907D0802124200A4365
:105AB00091B21A540A0A25215A541949019A8C465E
:105AC0002721624492B2120A5A542821029A64444D
:105AD000624492B2120A5A542921039AA4B262442F
